{
  "_format": "hh-sol-artifact-1",
  "contractName": "Lottx",
  "sourceName": "contracts/Lottx.sol",
  "abi": [
    {
      "inputs": [
        {
          "internalType": "address",
          "name": "_usdt",
          "type": "address"
        },
        {
          "internalType": "address",
          "name": "_timer",
          "type": "address"
        },
        {
          "internalType": "uint8",
          "name": "_sizeOfLotteryNubers",
          "type": "uint8"
        },
        {
          "internalType": "uint16",
          "name": "_maxValidRange",
          "type": "uint16"
        },
        {
          "internalType": "uint8",
          "name": "_maxNumberTicketsPerBatch",
          "type": "uint8"
        }
      ],
      "stateMutability": "nonpayable",
      "type": "constructor"
    },
    {
      "anonymous": false,
      "inputs": [
        {
          "indexed": true,
          "internalType": "uint256",
          "name": "lotteryId",
          "type": "uint256"
        },
        {
          "indexed": false,
          "internalType": "uint256",
          "name": "ticketSupply",
          "type": "uint256"
        }
      ],
      "name": "LotteryClose",
      "type": "event"
    },
    {
      "anonymous": false,
      "inputs": [
        {
          "indexed": true,
          "internalType": "uint256",
          "name": "lotteryId",
          "type": "uint256"
        },
        {
          "indexed": false,
          "internalType": "uint16[]",
          "name": "finalNumber",
          "type": "uint16[]"
        }
      ],
      "name": "LotteryNumberDrawn",
      "type": "event"
    },
    {
      "anonymous": false,
      "inputs": [
        {
          "indexed": true,
          "internalType": "uint256",
          "name": "lotteryId",
          "type": "uint256"
        },
        {
          "indexed": false,
          "internalType": "uint256",
          "name": "ticketSupply",
          "type": "uint256"
        },
        {
          "indexed": false,
          "internalType": "uint256",
          "name": "startTime",
          "type": "uint256"
        },
        {
          "indexed": false,
          "internalType": "uint256",
          "name": "endTime",
          "type": "uint256"
        },
        {
          "indexed": false,
          "internalType": "uint256",
          "name": "costPerTicket",
          "type": "uint256"
        },
        {
          "indexed": false,
          "internalType": "uint8[]",
          "name": "prizeDistribution",
          "type": "uint8[]"
        }
      ],
      "name": "LotteryOpen",
      "type": "event"
    },
    {
      "anonymous": false,
      "inputs": [
        {
          "indexed": true,
          "internalType": "address",
          "name": "previousOwner",
          "type": "address"
        },
        {
          "indexed": true,
          "internalType": "address",
          "name": "newOwner",
          "type": "address"
        }
      ],
      "name": "OwnershipTransferred",
      "type": "event"
    },
    {
      "anonymous": false,
      "inputs": [
        {
          "indexed": false,
          "internalType": "uint256",
          "name": "lotteryId",
          "type": "uint256"
        },
        {
          "indexed": false,
          "internalType": "bytes32",
          "name": "requestId",
          "type": "bytes32"
        }
      ],
      "name": "RequestNumbers",
      "type": "event"
    },
    {
      "anonymous": false,
      "inputs": [
        {
          "indexed": true,
          "internalType": "address",
          "name": "claimer",
          "type": "address"
        },
        {
          "indexed": true,
          "internalType": "uint256",
          "name": "lotteryId",
          "type": "uint256"
        },
        {
          "indexed": false,
          "internalType": "uint256",
          "name": "numberTickets",
          "type": "uint256"
        }
      ],
      "name": "TicketsClaim",
      "type": "event"
    },
    {
      "anonymous": false,
      "inputs": [
        {
          "indexed": false,
          "internalType": "uint256",
          "name": "lotteryId",
          "type": "uint256"
        },
        {
          "indexed": false,
          "internalType": "uint8",
          "name": "numberTickets",
          "type": "uint8"
        },
        {
          "indexed": true,
          "internalType": "address",
          "name": "buyer",
          "type": "address"
        },
        {
          "indexed": false,
          "internalType": "uint256[]",
          "name": "ticketIDs",
          "type": "uint256[]"
        },
        {
          "indexed": false,
          "internalType": "uint16[]",
          "name": "numbers",
          "type": "uint16[]"
        },
        {
          "indexed": false,
          "internalType": "uint256",
          "name": "totalCost",
          "type": "uint256"
        }
      ],
      "name": "TicketsPurchase",
      "type": "event"
    },
    {
      "anonymous": false,
      "inputs": [
        {
          "indexed": false,
          "internalType": "address",
          "name": "admin",
          "type": "address"
        },
        {
          "indexed": false,
          "internalType": "uint16",
          "name": "newMaxRange",
          "type": "uint16"
        }
      ],
      "name": "UpdatedMaxRange",
      "type": "event"
    },
    {
      "anonymous": false,
      "inputs": [
        {
          "indexed": false,
          "internalType": "address",
          "name": "admin",
          "type": "address"
        },
        {
          "indexed": false,
          "internalType": "uint8",
          "name": "newLotterySize",
          "type": "uint8"
        }
      ],
      "name": "UpdatedSizeOfLottery",
      "type": "event"
    },
    {
      "inputs": [
        {
          "internalType": "uint256",
          "name": "_lotteryId",
          "type": "uint256"
        },
        {
          "internalType": "uint256[]",
          "name": "_tokeIds",
          "type": "uint256[]"
        }
      ],
      "name": "batchClaimRewards",
      "outputs": [],
      "stateMutability": "nonpayable",
      "type": "function"
    },
    {
      "inputs": [
        {
          "internalType": "uint256",
          "name": "_lotteryId",
          "type": "uint256"
        },
        {
          "internalType": "uint8",
          "name": "_numberOfTickets",
          "type": "uint8"
        },
        {
          "internalType": "uint16[]",
          "name": "_chosenNumbers",
          "type": "uint16[]"
        }
      ],
      "name": "buyLottTickets",
      "outputs": [],
      "stateMutability": "nonpayable",
      "type": "function"
    },
    {
      "inputs": [
        {
          "internalType": "uint256",
          "name": "_lotteryId",
          "type": "uint256"
        },
        {
          "internalType": "uint256",
          "name": "_tokenId",
          "type": "uint256"
        }
      ],
      "name": "claimReward",
      "outputs": [],
      "stateMutability": "nonpayable",
      "type": "function"
    },
    {
      "inputs": [
        {
          "internalType": "uint256",
          "name": "_lotteryId",
          "type": "uint256"
        }
      ],
      "name": "createLuckyNumbers",
      "outputs": [],
      "stateMutability": "nonpayable",
      "type": "function"
    },
    {
      "inputs": [
        {
          "internalType": "uint8[]",
          "name": "_prizeDistribution",
          "type": "uint8[]"
        },
        {
          "internalType": "uint256",
          "name": "_totalPrize",
          "type": "uint256"
        },
        {
          "internalType": "uint256",
          "name": "_costPerTicket",
          "type": "uint256"
        },
        {
          "internalType": "uint256",
          "name": "_startingTimestamp",
          "type": "uint256"
        },
        {
          "internalType": "uint256",
          "name": "_closingTimestamp",
          "type": "uint256"
        }
      ],
      "name": "createNewLott",
      "outputs": [
        {
          "internalType": "uint256",
          "name": "_lotteryId",
          "type": "uint256"
        }
      ],
      "stateMutability": "nonpayable",
      "type": "function"
    },
    {
      "inputs": [
        {
          "internalType": "uint256",
          "name": "_lotteryId",
          "type": "uint256"
        }
      ],
      "name": "getBasicLottoInfo",
      "outputs": [
        {
          "components": [
            {
              "internalType": "uint256",
              "name": "lotteryId",
              "type": "uint256"
            },
            {
              "internalType": "enum Lottx.Status",
              "name": "lotteryStatus",
              "type": "uint8"
            },
            {
              "internalType": "uint256",
              "name": "totalPrize",
              "type": "uint256"
            },
            {
              "internalType": "uint256",
              "name": "costPerTicket",
              "type": "uint256"
            },
            {
              "internalType": "uint256",
              "name": "startTimestamp",
              "type": "uint256"
            },
            {
              "internalType": "uint256",
              "name": "closedTimestamp",
              "type": "uint256"
            },
            {
              "internalType": "uint8[]",
              "name": "prizeDistribution",
              "type": "uint8[]"
            },
            {
              "internalType": "uint16[]",
              "name": "luckyNumbers",
              "type": "uint16[]"
            }
          ],
          "internalType": "struct Lottx.Lottxinfo",
          "name": "",
          "type": "tuple"
        }
      ],
      "stateMutability": "view",
      "type": "function"
    },
    {
      "inputs": [],
      "name": "getCurrentTime",
      "outputs": [
        {
          "internalType": "uint256",
          "name": "",
          "type": "uint256"
        }
      ],
      "stateMutability": "view",
      "type": "function"
    },
    {
      "inputs": [],
      "name": "getMaxRange",
      "outputs": [
        {
          "internalType": "uint16",
          "name": "",
          "type": "uint16"
        }
      ],
      "stateMutability": "view",
      "type": "function"
    },
    {
      "inputs": [
        {
          "internalType": "address",
          "name": "_nft",
          "type": "address"
        },
        {
          "internalType": "address",
          "name": "_IRandomNumberGenerator",
          "type": "address"
        }
      ],
      "name": "initialize",
      "outputs": [],
      "stateMutability": "nonpayable",
      "type": "function"
    },
    {
      "inputs": [],
      "name": "maxNumberTicketsPerBatch",
      "outputs": [
        {
          "internalType": "uint8",
          "name": "",
          "type": "uint8"
        }
      ],
      "stateMutability": "view",
      "type": "function"
    },
    {
      "inputs": [],
      "name": "maxValidRange",
      "outputs": [
        {
          "internalType": "uint16",
          "name": "",
          "type": "uint16"
        }
      ],
      "stateMutability": "view",
      "type": "function"
    },
    {
      "inputs": [
        {
          "internalType": "uint256",
          "name": "_lotteryId",
          "type": "uint256"
        },
        {
          "internalType": "bytes32",
          "name": "_requestId",
          "type": "bytes32"
        },
        {
          "internalType": "uint256",
          "name": "_randomNumber",
          "type": "uint256"
        }
      ],
      "name": "numbersDrawn",
      "outputs": [],
      "stateMutability": "nonpayable",
      "type": "function"
    },
    {
      "inputs": [],
      "name": "owner",
      "outputs": [
        {
          "internalType": "address",
          "name": "",
          "type": "address"
        }
      ],
      "stateMutability": "view",
      "type": "function"
    },
    {
      "inputs": [],
      "name": "renounceOwnership",
      "outputs": [],
      "stateMutability": "nonpayable",
      "type": "function"
    },
    {
      "inputs": [
        {
          "internalType": "uint256",
          "name": "time",
          "type": "uint256"
        }
      ],
      "name": "setCurrentTime",
      "outputs": [],
      "stateMutability": "nonpayable",
      "type": "function"
    },
    {
      "inputs": [],
      "name": "sizeOfLotteryNubers",
      "outputs": [
        {
          "internalType": "uint8",
          "name": "",
          "type": "uint8"
        }
      ],
      "stateMutability": "view",
      "type": "function"
    },
    {
      "inputs": [
        {
          "internalType": "uint256",
          "name": "_lotteryId",
          "type": "uint256"
        },
        {
          "internalType": "uint256",
          "name": "_numberOfTickets",
          "type": "uint256"
        }
      ],
      "name": "ticketsCost",
      "outputs": [
        {
          "internalType": "uint256",
          "name": "totalCost",
          "type": "uint256"
        }
      ],
      "stateMutability": "view",
      "type": "function"
    },
    {
      "inputs": [],
      "name": "timerAddress",
      "outputs": [
        {
          "internalType": "address",
          "name": "",
          "type": "address"
        }
      ],
      "stateMutability": "view",
      "type": "function"
    },
    {
      "inputs": [
        {
          "internalType": "address",
          "name": "newOwner",
          "type": "address"
        }
      ],
      "name": "transferOwnership",
      "outputs": [],
      "stateMutability": "nonpayable",
      "type": "function"
    },
    {
      "inputs": [
        {
          "internalType": "uint16",
          "name": "_newMaxRange",
          "type": "uint16"
        }
      ],
      "name": "updateMaxRange",
      "outputs": [],
      "stateMutability": "nonpayable",
      "type": "function"
    },
    {
      "inputs": [
        {
          "internalType": "uint8",
          "name": "_newSize",
          "type": "uint8"
        }
      ],
      "name": "updateSizeOfLottery",
      "outputs": [],
      "stateMutability": "nonpayable",
      "type": "function"
    }
  ],
  "bytecode": "0x60806040523480156200001157600080fd5b5060405162005d4938038062005d4983398181016040528101906200003791906200032a565b83620000586200004c6200021960201b60201c565b6200022160201b60201c565b80600160006101000a81548173ffffffffffffffffffffffffffffffffffffffff021916908373ffffffffffffffffffffffffffffffffffffffff16021790555050600073ffffffffffffffffffffffffffffffffffffffff168573ffffffffffffffffffffffffffffffffffffffff1614156200010d576040517f08c379a00000000000000000000000000000000000000000000000000000000081526004016200010490620003fa565b60405180910390fd5b60008360ff161415801562000127575060008261ffff1614155b801562000138575060008160ff1614155b6200017a576040517f08c379a000000000000000000000000000000000000000000000000000000000815260040162000171906200041c565b60405180910390fd5b84600260006101000a81548173ffffffffffffffffffffffffffffffffffffffff021916908373ffffffffffffffffffffffffffffffffffffffff16021790555082600660006101000a81548160ff021916908360ff16021790555081600660026101000a81548161ffff021916908361ffff16021790555080600660016101000a81548160ff021916908360ff16021790555050505050506200053e565b600033905090565b60008060009054906101000a900473ffffffffffffffffffffffffffffffffffffffff169050816000806101000a81548173ffffffffffffffffffffffffffffffffffffffff021916908373ffffffffffffffffffffffffffffffffffffffff1602179055508173ffffffffffffffffffffffffffffffffffffffff168173ffffffffffffffffffffffffffffffffffffffff167f8be0079c531659141344cd1fd0a4f28419497f9722a3daafe3b4186f6b6457e060405160405180910390a35050565b600081519050620002f681620004f0565b92915050565b6000815190506200030d816200050a565b92915050565b600081519050620003248162000524565b92915050565b600080600080600060a086880312156200034357600080fd5b60006200035388828901620002e5565b95505060206200036688828901620002e5565b9450506040620003798882890162000313565b93505060606200038c88828901620002fc565b92505060806200039f8882890162000313565b9150509295509295909350565b6000620003bb601d836200043e565b9150620003c8826200049e565b602082019050919050565b6000620003e26019836200043e565b9150620003ef82620004c7565b602082019050919050565b600060208201905081810360008301526200041581620003ac565b9050919050565b600060208201905081810360008301526200043781620003d3565b9050919050565b600082825260208201905092915050565b60006200045c8262000471565b9050919050565b600061ffff82169050919050565b600073ffffffffffffffffffffffffffffffffffffffff82169050919050565b600060ff82169050919050565b7f436f6e7472616374732063616e6e6f7420626520302061646472657373000000600082015250565b7f4c6f74746572792073657475702063616e6e6f74206265203000000000000000600082015250565b620004fb816200044f565b81146200050757600080fd5b50565b620005158162000463565b81146200052157600080fd5b50565b6200052f8162000491565b81146200053b57600080fd5b50565b6157fb806200054e6000396000f3fe608060405234801561001057600080fd5b50600436106101375760003560e01c806376674b8f116100b8578063ab1ad8bb1161007c578063ab1ad8bb14610300578063d062b57c1461031e578063da4767551461033a578063e59bbab51461036a578063e97fc16214610388578063f2fde38b146103a457610137565b806376674b8f1461025c578063852274141461027857806386bb8f37146102965780638da5cb5b146102b257806397461031146102d057610137565b806322f8e566116100ff57806322f8e566146101e057806329cb924d146101fc57806347a553181461021a578063485cc95514610236578063715018a61461025257610137565b80630578631f1461013c578063065dcec91461016c5780630773aa461461018a5780630c625e7d146101a65780631c39c38d146101c2575b600080fd5b61015660048036038101906101519190613d16565b6103c0565b6040516101639190614af8565b60405180910390f35b6101746103f3565b6040516101819190614add565b60405180910390f35b6101a4600480360381019061019f9190613dbe565b610407565b005b6101c060048036038101906101bb9190613d52565b610588565b005b6101ca610b1e565b6040516101d791906145d5565b60405180910390f35b6101fa60048036038101906101f59190613c1d565b610b44565b005b610204610c30565b6040516102119190614af8565b60405180910390f35b610234600480360381019061022f9190613c1d565b610d35565b005b610250600480360381019061024b9190613a52565b61103d565b005b61025a6112c2565b005b61027660048036038101906102719190613c6f565b61134a565b005b610280611c27565b60405161028d9190614c4b565b60405180910390f35b6102b060048036038101906102ab9190613d16565b611c3a565b005b6102ba6122e2565b6040516102c791906145d5565b60405180910390f35b6102ea60048036038101906102e59190613b10565b61230b565b6040516102f79190614af8565b60405180910390f35b61030861288f565b6040516103159190614c4b565b60405180910390f35b61033860048036038101906103339190613bf4565b6128a2565b005b610354600480360381019061034f9190613c1d565b612a2a565b6040516103619190614abb565b60405180910390f35b610372612c0f565b60405161037f9190614add565b60405180910390f35b6103a2600480360381019061039d9190613cc7565b612c27565b005b6103be60048036038101906103b99190613a00565b612f4c565b005b60006103eb82600860008681526020019081526020016000206003015461304490919063ffffffff16565b905092915050565b600660029054906101000a900461ffff1681565b61040f61305a565b73ffffffffffffffffffffffffffffffffffffffff1661042d6122e2565b73ffffffffffffffffffffffffffffffffffffffff1614610483576040517f08c379a000000000000000000000000000000000000000000000000000000000815260040161047a906149db565b60405180910390fd5b8060ff16600660009054906101000a900460ff1660ff1614156104db576040517f08c379a00000000000000000000000000000000000000000000000000000000081526004016104d29061491b565b60405180910390fd5b6000600660009054906101000a900460ff1660ff161415610531576040517f08c379a00000000000000000000000000000000000000000000000000000000081526004016105289061483b565b60405180910390fd5b80600660006101000a81548160ff021916908360ff1602179055507f390ce0ae29f1f6d8a7be889544606cb23b660dd44710ecbe1408aaed6356eba3338260405161057d9291906146d5565b60405180910390a150565b6105a73373ffffffffffffffffffffffffffffffffffffffff16613062565b156105e7576040517f08c379a00000000000000000000000000000000000000000000000000000000081526004016105de906149fb565b60405180910390fd5b3273ffffffffffffffffffffffffffffffffffffffff163373ffffffffffffffffffffffffffffffffffffffff1614610655576040517f08c379a000000000000000000000000000000000000000000000000000000000815260040161064c9061473b565b60405180910390fd5b6008600085815260200190815260200160002060040154610674610c30565b10156106b5576040517f08c379a00000000000000000000000000000000000000000000000000000000081526004016106ac9061487b565b60405180910390fd5b60086000858152602001908152602001600020600501546106d4610c30565b10610714576040517f08c379a000000000000000000000000000000000000000000000000000000000815260040161070b906148bb565b60405180910390fd5b6001600381111561074e577f4e487b7100000000000000000000000000000000000000000000000000000000600052602160045260246000fd5b6008600086815260200190815260200160002060010160009054906101000a900460ff1660038111156107aa577f4e487b7100000000000000000000000000000000000000000000000000000000600052602160045260246000fd5b146107ea576040517f08c379a00000000000000000000000000000000000000000000000000000000081526004016107e190614a3b565b60405180910390fd5b600660019054906101000a900460ff1660ff168360ff161115610842576040517f08c379a0000000000000000000000000000000000000000000000000000000008152600401610839906147bb565b60405180910390fd5b610867600660009054906101000a900460ff168460ff1661307590919063ffffffff16565b60ff1682829050146108ae576040517f08c379a00000000000000000000000000000000000000000000000000000000081526004016108a59061497b565b60405180910390fd5b60003073ffffffffffffffffffffffffffffffffffffffff16630578631f86866040518363ffffffff1660e01b81526004016108eb929190614bbf565b60206040518083038186803b15801561090357600080fd5b505afa158015610917573d6000803e3d6000fd5b505050506040513d601f19601f8201168201806040525081019061093b9190613c46565b9050600260009054906101000a900473ffffffffffffffffffffffffffffffffffffffff1673ffffffffffffffffffffffffffffffffffffffff166323b872dd3330846040518463ffffffff1660e01b815260040161099c939291906145f0565b602060405180830381600087803b1580156109b657600080fd5b505af11580156109ca573d6000803e3d6000fd5b505050506040513d601f19601f820116820180604052508101906109ee9190613ba2565b506000600360009054906101000a900473ffffffffffffffffffffffffffffffffffffffff1673ffffffffffffffffffffffffffffffffffffffff16635e3261d03388888888600660009054906101000a900460ff166040518763ffffffff1660e01b8152600401610a6596959493929190614679565b600060405180830381600087803b158015610a7f57600080fd5b505af1158015610a93573d6000803e3d6000fd5b505050506040513d6000823e3d601f19601f82011682018060405250810190610abc9190613acf565b90503373ffffffffffffffffffffffffffffffffffffffff167fb8679c950e62624f550bb52d25a94ceea80fe8778b6a46c3ba01610f6790c91a878784888888604051610b0e96959493929190614be8565b60405180910390a2505050505050565b600160009054906101000a900473ffffffffffffffffffffffffffffffffffffffff1681565b600073ffffffffffffffffffffffffffffffffffffffff16600160009054906101000a900473ffffffffffffffffffffffffffffffffffffffff1673ffffffffffffffffffffffffffffffffffffffff161415610ba057600080fd5b600160009054906101000a900473ffffffffffffffffffffffffffffffffffffffff1673ffffffffffffffffffffffffffffffffffffffff166322f8e566826040518263ffffffff1660e01b8152600401610bfb9190614af8565b600060405180830381600087803b158015610c1557600080fd5b505af1158015610c29573d6000803e3d6000fd5b5050505050565b60008073ffffffffffffffffffffffffffffffffffffffff16600160009054906101000a900473ffffffffffffffffffffffffffffffffffffffff1673ffffffffffffffffffffffffffffffffffffffff1614610d2e57600160009054906101000a900473ffffffffffffffffffffffffffffffffffffffff1673ffffffffffffffffffffffffffffffffffffffff166329cb924d6040518163ffffffff1660e01b815260040160206040518083038186803b158015610cef57600080fd5b505afa158015610d03573d6000803e3d6000fd5b505050506040513d601f19601f82011682018060405250810190610d279190613c46565b9050610d32565b4290505b90565b610d3d61305a565b73ffffffffffffffffffffffffffffffffffffffff16610d5b6122e2565b73ffffffffffffffffffffffffffffffffffffffff1614610db1576040517f08c379a0000000000000000000000000000000000000000000000000000000008152600401610da8906149db565b60405180910390fd5b610db9610c30565b60086000838152602001908152602001600020600501541115610e11576040517f08c379a0000000000000000000000000000000000000000000000000000000008152600401610e0890614a1b565b60405180910390fd5b60016003811115610e4b577f4e487b7100000000000000000000000000000000000000000000000000000000600052602160045260246000fd5b6008600083815260200190815260200160002060010160009054906101000a900460ff166003811115610ea7577f4e487b7100000000000000000000000000000000000000000000000000000000600052602160045260246000fd5b14610ee7576040517f08c379a0000000000000000000000000000000000000000000000000000000008152600401610ede9061489b565b60405180910390fd5b600460009054906101000a900473ffffffffffffffffffffffffffffffffffffffff1673ffffffffffffffffffffffffffffffffffffffff1663b37217a4826040518263ffffffff1660e01b8152600401610f429190614af8565b602060405180830381600087803b158015610f5c57600080fd5b505af1158015610f70573d6000803e3d6000fd5b505050506040513d601f19601f82011682018060405250810190610f949190613bcb565b60078190555060026008600083815260200190815260200160002060010160006101000a81548160ff02191690836003811115610ffa577f4e487b7100000000000000000000000000000000000000000000000000000000600052602160045260246000fd5b02179055507ff8cdf8355a0f31bbad8998a631f5a75dcb3e475a010b34a111ed105fe88e751a81600754604051611032929190614b13565b60405180910390a150565b600060159054906101000a900460ff16806110655750600060149054906101000a900460ff16155b6110a4576040517f08c379a000000000000000000000000000000000000000000000000000000000815260040161109b9061495b565b60405180910390fd5b60008060159054906101000a900460ff1615905080156110f5576001600060156101000a81548160ff0219169083151502179055506001600060146101000a81548160ff0219169083151502179055505b6110fd61305a565b73ffffffffffffffffffffffffffffffffffffffff1661111b6122e2565b73ffffffffffffffffffffffffffffffffffffffff1614611171576040517f08c379a0000000000000000000000000000000000000000000000000000000008152600401611168906149db565b60405180910390fd5b600073ffffffffffffffffffffffffffffffffffffffff168373ffffffffffffffffffffffffffffffffffffffff16141580156111db5750600073ffffffffffffffffffffffffffffffffffffffff168273ffffffffffffffffffffffffffffffffffffffff1614155b61121a576040517f08c379a00000000000000000000000000000000000000000000000000000000081526004016112119061499b565b60405180910390fd5b82600360006101000a81548173ffffffffffffffffffffffffffffffffffffffff021916908373ffffffffffffffffffffffffffffffffffffffff16021790555081600460006101000a81548173ffffffffffffffffffffffffffffffffffffffff021916908373ffffffffffffffffffffffffffffffffffffffff16021790555080156112bd5760008060156101000a81548160ff0219169083151502179055505b505050565b6112ca61305a565b73ffffffffffffffffffffffffffffffffffffffff166112e86122e2565b73ffffffffffffffffffffffffffffffffffffffff161461133e576040517f08c379a0000000000000000000000000000000000000000000000000000000008152600401611335906149db565b60405180910390fd5b61134860006130f9565b565b6113693373ffffffffffffffffffffffffffffffffffffffff16613062565b156113a9576040517f08c379a00000000000000000000000000000000000000000000000000000000081526004016113a0906149fb565b60405180910390fd5b3273ffffffffffffffffffffffffffffffffffffffff163373ffffffffffffffffffffffffffffffffffffffff1614611417576040517f08c379a000000000000000000000000000000000000000000000000000000000815260040161140e9061473b565b60405180910390fd5b603282829050111561145e576040517f08c379a0000000000000000000000000000000000000000000000000000000008152600401611455906148db565b60405180910390fd5b611466610c30565b600860008581526020019081526020016000206005015411156114be576040517f08c379a00000000000000000000000000000000000000000000000000000000081526004016114b59061481b565b60405180910390fd5b6003808111156114f7577f4e487b7100000000000000000000000000000000000000000000000000000000600052602160045260246000fd5b6008600085815260200190815260200160002060010160009054906101000a900460ff166003811115611553577f4e487b7100000000000000000000000000000000000000000000000000000000600052602160045260246000fd5b14611593576040517f08c379a000000000000000000000000000000000000000000000000000000000815260040161158a90614a7b565b60405180910390fd5b6000805b83839050811015611b1e573373ffffffffffffffffffffffffffffffffffffffff16600360009054906101000a900473ffffffffffffffffffffffffffffffffffffffff1673ffffffffffffffffffffffffffffffffffffffff16639d755367868685818110611630577f4e487b7100000000000000000000000000000000000000000000000000000000600052603260045260246000fd5b905060200201356040518263ffffffff1660e01b81526004016116539190614af8565b60206040518083038186803b15801561166b57600080fd5b505afa15801561167f573d6000803e3d6000fd5b505050506040513d601f19601f820116820180604052508101906116a39190613a29565b73ffffffffffffffffffffffffffffffffffffffff16146116f9576040517f08c379a00000000000000000000000000000000000000000000000000000000081526004016116f09061493b565b60405180910390fd5b600360009054906101000a900473ffffffffffffffffffffffffffffffffffffffff1673ffffffffffffffffffffffffffffffffffffffff16639191a7ea858584818110611770577f4e487b7100000000000000000000000000000000000000000000000000000000600052603260045260246000fd5b905060200201356040518263ffffffff1660e01b81526004016117939190614af8565b60206040518083038186803b1580156117ab57600080fd5b505afa1580156117bf573d6000803e3d6000fd5b505050506040513d601f19601f820116820180604052508101906117e39190613ba2565b156117ed57611b0b565b600360009054906101000a900473ffffffffffffffffffffffffffffffffffffffff1673ffffffffffffffffffffffffffffffffffffffff1663ed06a740858584818110611864577f4e487b7100000000000000000000000000000000000000000000000000000000600052603260045260246000fd5b90506020020135876040518363ffffffff1660e01b8152600401611889929190614b3c565b602060405180830381600087803b1580156118a357600080fd5b505af11580156118b7573d6000803e3d6000fd5b505050506040513d601f19601f820116820180604052508101906118db9190613ba2565b61191a576040517f08c379a00000000000000000000000000000000000000000000000000000000081526004016119119061485b565b60405180910390fd5b6000611aa0600360009054906101000a900473ffffffffffffffffffffffffffffffffffffffff1673ffffffffffffffffffffffffffffffffffffffff16639839eafd878786818110611996577f4e487b7100000000000000000000000000000000000000000000000000000000600052603260045260246000fd5b905060200201356040518263ffffffff1660e01b81526004016119b99190614af8565b60006040518083038186803b1580156119d157600080fd5b505afa1580156119e5573d6000803e3d6000fd5b505050506040513d6000823e3d601f19601f82011682018060405250810190611a0e9190613a8e565b60086000898152602001908152602001600020600701805480602002602001604051908101604052809291908181526020018280548015611a9657602002820191906000526020600020906000905b82829054906101000a900461ffff1661ffff1681526020019060020190602082600101049283019260010382029150808411611a5d5790505b50505050506131bd565b90506000611aae8288613288565b9050611ad981600860008a81526020019081526020016000206002015461337390919063ffffffff16565b6008600089815260200190815260200160002060020181905550611b06818561338990919063ffffffff16565b935050505b8080611b16906150c2565b915050611597565b50600260009054906101000a900473ffffffffffffffffffffffffffffffffffffffff1673ffffffffffffffffffffffffffffffffffffffff1663a9059cbb33836040518363ffffffff1660e01b8152600401611b7c929190614650565b602060405180830381600087803b158015611b9657600080fd5b505af1158015611baa573d6000803e3d6000fd5b505050506040513d601f19601f82011682018060405250810190611bce9190613ba2565b50833373ffffffffffffffffffffffffffffffffffffffff167f0fdeb33b5931b477077383757e0ba077bd3d8eddfa2cc711c54ad2d3a0cfac6585859050604051611c199190614af8565b60405180910390a350505050565b600660009054906101000a900460ff1681565b611c593373ffffffffffffffffffffffffffffffffffffffff16613062565b15611c99576040517f08c379a0000000000000000000000000000000000000000000000000000000008152600401611c90906149fb565b60405180910390fd5b3273ffffffffffffffffffffffffffffffffffffffff163373ffffffffffffffffffffffffffffffffffffffff1614611d07576040517f08c379a0000000000000000000000000000000000000000000000000000000008152600401611cfe9061473b565b60405180910390fd5b611d0f610c30565b60086000848152602001908152602001600020600501541115611d67576040517f08c379a0000000000000000000000000000000000000000000000000000000008152600401611d5e9061481b565b60405180910390fd5b600380811115611da0577f4e487b7100000000000000000000000000000000000000000000000000000000600052602160045260246000fd5b6008600084815260200190815260200160002060010160009054906101000a900460ff166003811115611dfc577f4e487b7100000000000000000000000000000000000000000000000000000000600052602160045260246000fd5b14611e3c576040517f08c379a0000000000000000000000000000000000000000000000000000000008152600401611e3390614a7b565b60405180910390fd5b3373ffffffffffffffffffffffffffffffffffffffff16600360009054906101000a900473ffffffffffffffffffffffffffffffffffffffff1673ffffffffffffffffffffffffffffffffffffffff16639d755367836040518263ffffffff1660e01b8152600401611eae9190614af8565b60206040518083038186803b158015611ec657600080fd5b505afa158015611eda573d6000803e3d6000fd5b505050506040513d601f19601f82011682018060405250810190611efe9190613a29565b73ffffffffffffffffffffffffffffffffffffffff1614611f54576040517f08c379a0000000000000000000000000000000000000000000000000000000008152600401611f4b9061493b565b60405180910390fd5b600360009054906101000a900473ffffffffffffffffffffffffffffffffffffffff1673ffffffffffffffffffffffffffffffffffffffff1663ed06a74082846040518363ffffffff1660e01b8152600401611fb1929190614b3c565b602060405180830381600087803b158015611fcb57600080fd5b505af1158015611fdf573d6000803e3d6000fd5b505050506040513d601f19601f820116820180604052508101906120039190613ba2565b612042576040517f08c379a00000000000000000000000000000000000000000000000000000000081526004016120399061485b565b60405180910390fd5b6000612189600360009054906101000a900473ffffffffffffffffffffffffffffffffffffffff1673ffffffffffffffffffffffffffffffffffffffff16639839eafd846040518263ffffffff1660e01b81526004016120a29190614af8565b60006040518083038186803b1580156120ba57600080fd5b505afa1580156120ce573d6000803e3d6000fd5b505050506040513d6000823e3d601f19601f820116820180604052508101906120f79190613a8e565b6008600086815260200190815260200160002060070180548060200260200160405190810160405280929190818152602001828054801561217f57602002820191906000526020600020906000905b82829054906101000a900461ffff1661ffff16815260200190600201906020826001010492830192600103820291508084116121465790505b50505050506131bd565b905060006121978285613288565b90506121c281600860008781526020019081526020016000206002015461337390919063ffffffff16565b6008600086815260200190815260200160002060020181905550600260009054906101000a900473ffffffffffffffffffffffffffffffffffffffff1673ffffffffffffffffffffffffffffffffffffffff1663a9059cbb33836040518363ffffffff1660e01b8152600401612239929190614650565b602060405180830381600087803b15801561225357600080fd5b505af1158015612267573d6000803e3d6000fd5b505050506040513d601f19601f8201168201806040525081019061228b9190613ba2565b50833373ffffffffffffffffffffffffffffffffffffffff167f0fdeb33b5931b477077383757e0ba077bd3d8eddfa2cc711c54ad2d3a0cfac6560016040516122d49190614720565b60405180910390a350505050565b60008060009054906101000a900473ffffffffffffffffffffffffffffffffffffffff16905090565b600061231561305a565b73ffffffffffffffffffffffffffffffffffffffff166123336122e2565b73ffffffffffffffffffffffffffffffffffffffff1614612389576040517f08c379a0000000000000000000000000000000000000000000000000000000008152600401612380906149db565b60405180910390fd5b600660009054906101000a900460ff1660ff1687879050146123e0576040517f08c379a00000000000000000000000000000000000000000000000000000000081526004016123d79061479b565b60405180910390fd5b6000805b888890508110156124675761245289898381811061242b577f4e487b7100000000000000000000000000000000000000000000000000000000600052603260045260246000fd5b90506020020160208101906124409190613dbe565b60ff168361338990919063ffffffff16565b9150808061245f906150c2565b9150506123e4565b50606481146124ab576040517f08c379a00000000000000000000000000000000000000000000000000000000081526004016124a290614a9b565b60405180910390fd5b600086141580156124bd575060008514155b6124fc576040517f08c379a00000000000000000000000000000000000000000000000000000000081526004016124f39061477b565b60405180910390fd5b6000841415801561250c57508284105b61254b576040517f08c379a000000000000000000000000000000000000000000000000000000000815260040161254290614a5b565b60405180910390fd5b612561600160055461338990919063ffffffff16565b60058190555060055491506000600660009054906101000a900460ff1660ff1667ffffffffffffffff8111156125c0577f4e487b7100000000000000000000000000000000000000000000000000000000600052604160045260246000fd5b6040519080825280602002602001820160405280156125ee5781602001602082028036833780820191505090505b50905060006125fb610c30565b86101561260957600061260c565b60015b9050600060405180610100016040528086815260200183600381111561265b577f4e487b7100000000000000000000000000000000000000000000000000000000600052602160045260246000fd5b81526020018a81526020018981526020018881526020018781526020018c8c80806020026020016040519081016040528093929190818152602001838360200280828437600081840152601f19601f82011690508083019250505050505050815260200184815250905080600860008781526020019081526020016000206000820151816000015560208201518160010160006101000a81548160ff02191690836003811115612734577f4e487b7100000000000000000000000000000000000000000000000000000000600052602160045260246000fd5b021790555060408201518160020155606082015181600301556080820151816004015560a0820151816005015560c082015181600601908051906020019061277d929190613539565b5060e082015181600701908051906020019061279a9291906135e0565b50905050847fa1ce232f8e0e512d6cefab731de90087cf31974a4bab0f1943dab0d5a34b6c47600360009054906101000a900473ffffffffffffffffffffffffffffffffffffffff1673ffffffffffffffffffffffffffffffffffffffff1663c4e41b226040518163ffffffff1660e01b815260040160206040518083038186803b15801561282857600080fd5b505afa15801561283c573d6000803e3d6000fd5b505050506040513d601f19601f820116820180604052508101906128609190613c46565b89898c8660c00151604051612879959493929190614b65565b60405180910390a2505050509695505050505050565b600660019054906101000a900460ff1681565b6128aa61305a565b73ffffffffffffffffffffffffffffffffffffffff166128c86122e2565b73ffffffffffffffffffffffffffffffffffffffff161461291e576040517f08c379a0000000000000000000000000000000000000000000000000000000008152600401612915906149db565b60405180910390fd5b8061ffff16600660029054906101000a900461ffff1661ffff161415612979576040517f08c379a00000000000000000000000000000000000000000000000000000000081526004016129709061491b565b60405180910390fd5b6000600660029054906101000a900461ffff1661ffff1614156129d1576040517f08c379a00000000000000000000000000000000000000000000000000000000081526004016129c8906148fb565b60405180910390fd5b80600660026101000a81548161ffff021916908361ffff1602179055507f2a54f3414068117c88afc33d8e1dea5f6330df95e10ef41731baea27ab8a946e3382604051612a1f929190614627565b60405180910390a150565b612a3261368a565b6008600083815260200190815260200160002060405180610100016040529081600082015481526020016001820160009054906101000a900460ff166003811115612aa6577f4e487b7100000000000000000000000000000000000000000000000000000000600052602160045260246000fd5b6003811115612ade577f4e487b7100000000000000000000000000000000000000000000000000000000600052602160045260246000fd5b81526020016002820154815260200160038201548152602001600482015481526020016005820154815260200160068201805480602002602001604051908101604052809291908181526020018280548015612b7f57602002820191906000526020600020906000905b82829054906101000a900460ff1660ff1681526020019060010190602082600001049283019260010382029150808411612b485790505b5050505050815260200160078201805480602002602001604051908101604052809291908181526020018280548015612bff57602002820191906000526020600020906000905b82829054906101000a900461ffff1661ffff1681526020019060020190602082600101049283019260010382029150808411612bc65790505b5050505050815250509050919050565b6000600660029054906101000a900461ffff16905090565b600460009054906101000a900473ffffffffffffffffffffffffffffffffffffffff1673ffffffffffffffffffffffffffffffffffffffff163373ffffffffffffffffffffffffffffffffffffffff1614612cb7576040517f08c379a0000000000000000000000000000000000000000000000000000000008152600401612cae9061475b565b60405180910390fd5b60026003811115612cf1577f4e487b7100000000000000000000000000000000000000000000000000000000600052602160045260246000fd5b6008600085815260200190815260200160002060010160009054906101000a900460ff166003811115612d4d577f4e487b7100000000000000000000000000000000000000000000000000000000600052602160045260246000fd5b14612d8d576040517f08c379a0000000000000000000000000000000000000000000000000000000008152600401612d84906147fb565b60405180910390fd5b816007541415612e305760036008600085815260200190815260200160002060010160006101000a81548160ff02191690836003811115612df7577f4e487b7100000000000000000000000000000000000000000000000000000000600052602160045260246000fd5b0217905550612e058161339f565b600860008581526020019081526020016000206007019080519060200190612e2e9291906135e0565b505b827f3728e75294796694d59d2ffced9c394279baf7b9ebd2702db43f5f04bac67929600360009054906101000a900473ffffffffffffffffffffffffffffffffffffffff1673ffffffffffffffffffffffffffffffffffffffff1663c4e41b226040518163ffffffff1660e01b815260040160206040518083038186803b158015612eba57600080fd5b505afa158015612ece573d6000803e3d6000fd5b505050506040513d601f19601f82011682018060405250810190612ef29190613c46565b604051612eff9190614af8565b60405180910390a2827ff7ec13e21343105d9c140c34a3120e0157bd88fea953b4f9f8953cd6665b254b612f328361339f565b604051612f3f91906146fe565b60405180910390a2505050565b612f5461305a565b73ffffffffffffffffffffffffffffffffffffffff16612f726122e2565b73ffffffffffffffffffffffffffffffffffffffff1614612fc8576040517f08c379a0000000000000000000000000000000000000000000000000000000008152600401612fbf906149db565b60405180910390fd5b600073ffffffffffffffffffffffffffffffffffffffff168173ffffffffffffffffffffffffffffffffffffffff161415613038576040517f08c379a000000000000000000000000000000000000000000000000000000000815260040161302f906147db565b60405180910390fd5b613041816130f9565b50565b600081836130529190614ede565b905092915050565b600033905090565b600080823b905060008111915050919050565b6000808360ff16141561308b57600090506130f3565b600082846130999190614f38565b90508260ff1684826130ab9190614ead565b60ff16146130ee576040517f08c379a00000000000000000000000000000000000000000000000000000000081526004016130e5906149bb565b60405180910390fd5b809150505b92915050565b60008060009054906101000a900473ffffffffffffffffffffffffffffffffffffffff169050816000806101000a81548173ffffffffffffffffffffffffffffffffffffffff021916908373ffffffffffffffffffffffffffffffffffffffff1602179055508173ffffffffffffffffffffffffffffffffffffffff168173ffffffffffffffffffffffffffffffffffffffff167f8be0079c531659141344cd1fd0a4f28419497f9722a3daafe3b4186f6b6457e060405160405180910390a35050565b600080600090505b825181101561328157828181518110613207577f4e487b7100000000000000000000000000000000000000000000000000000000600052603260045260246000fd5b602002602001015161ffff1684828151811061324c577f4e487b7100000000000000000000000000000000000000000000000000000000600052603260045260246000fd5b602002602001015161ffff16141561326e5760018261326b9190614e45565b91505b8080613279906150c2565b9150506131c5565b5092915050565b6000806000905060008460ff1614156132a557600091505061336d565b6000600860008581526020019081526020016000206006016001866132ca9190614fa7565b60ff1681548110613304577f4e487b7100000000000000000000000000000000000000000000000000000000600052603260045260246000fd5b90600052602060002090602091828204019190069054906101000a900460ff1660ff16905061335281600860008781526020019081526020016000206002015461304490919063ffffffff16565b915061336860648361350d90919063ffffffff16565b925050505b92915050565b600081836133819190614f73565b905092915050565b600081836133979190614def565b905092915050565b60606000600660009054906101000a900460ff1660ff1667ffffffffffffffff8111156133f5577f4e487b7100000000000000000000000000000000000000000000000000000000600052604160045260246000fd5b6040519080825280602002602001820160405280156134235781602001602082028036833780820191505090505b50905060005b600660009054906101000a900460ff1660ff1681101561350357600084826040516020016134589291906145a9565b60405160208183030381529060405280519060200120905060008160001c905061349f600660029054906101000a900461ffff1661ffff168261352390919063ffffffff16565b8484815181106134d8577f4e487b7100000000000000000000000000000000000000000000000000000000600052603260045260246000fd5b602002602001019061ffff16908161ffff1681525050505080806134fb906150c2565b915050613429565b5080915050919050565b6000818361351b9190614e7c565b905092915050565b600081836135319190615115565b905092915050565b82805482825590600052602060002090601f016020900481019282156135cf5791602002820160005b838211156135a057835183826101000a81548160ff021916908360ff1602179055509260200192600101602081600001049283019260010302613562565b80156135cd5782816101000a81549060ff02191690556001016020816000010492830192600103026135a0565b505b5090506135dc9190613707565b5090565b82805482825590600052602060002090600f016010900481019282156136795791602002820160005b8382111561364957835183826101000a81548161ffff021916908361ffff1602179055509260200192600201602081600101049283019260010302613609565b80156136775782816101000a81549061ffff0219169055600201602081600101049283019260010302613649565b505b5090506136869190613707565b5090565b60405180610100016040528060008152602001600060038111156136d7577f4e487b7100000000000000000000000000000000000000000000000000000000600052602160045260246000fd5b81526020016000815260200160008152602001600081526020016000815260200160608152602001606081525090565b5b80821115613720576000816000905550600101613708565b5090565b600061373761373284614c8b565b614c66565b9050808382526020820190508285602086028201111561375657600080fd5b60005b85811015613786578161376c88826139ac565b845260208401935060208301925050600181019050613759565b5050509392505050565b60006137a361379e84614cb7565b614c66565b905080838252602082019050828560208602820111156137c257600080fd5b60005b858110156137f257816137d888826139d6565b8452602084019350602083019250506001810190506137c5565b5050509392505050565b60008135905061380b8161573b565b92915050565b6000815190506138208161573b565b92915050565b60008083601f84011261383857600080fd5b8235905067ffffffffffffffff81111561385157600080fd5b60208301915083602082028301111561386957600080fd5b9250929050565b600082601f83011261388157600080fd5b8151613891848260208601613724565b91505092915050565b60008083601f8401126138ac57600080fd5b8235905067ffffffffffffffff8111156138c557600080fd5b6020830191508360208202830111156138dd57600080fd5b9250929050565b600082601f8301126138f557600080fd5b8151613905848260208601613790565b91505092915050565b60008083601f84011261392057600080fd5b8235905067ffffffffffffffff81111561393957600080fd5b60208301915083602082028301111561395157600080fd5b9250929050565b60008151905061396781615752565b92915050565b60008135905061397c81615769565b92915050565b60008151905061399181615769565b92915050565b6000813590506139a681615780565b92915050565b6000815190506139bb81615780565b92915050565b6000813590506139d081615797565b92915050565b6000815190506139e581615797565b92915050565b6000813590506139fa816157ae565b92915050565b600060208284031215613a1257600080fd5b6000613a20848285016137fc565b91505092915050565b600060208284031215613a3b57600080fd5b6000613a4984828501613811565b91505092915050565b60008060408385031215613a6557600080fd5b6000613a73858286016137fc565b9250506020613a84858286016137fc565b9150509250929050565b600060208284031215613aa057600080fd5b600082015167ffffffffffffffff811115613aba57600080fd5b613ac684828501613870565b91505092915050565b600060208284031215613ae157600080fd5b600082015167ffffffffffffffff811115613afb57600080fd5b613b07848285016138e4565b91505092915050565b60008060008060008060a08789031215613b2957600080fd5b600087013567ffffffffffffffff811115613b4357600080fd5b613b4f89828a0161390e565b96509650506020613b6289828a016139c1565b9450506040613b7389828a016139c1565b9350506060613b8489828a016139c1565b9250506080613b9589828a016139c1565b9150509295509295509295565b600060208284031215613bb457600080fd5b6000613bc284828501613958565b91505092915050565b600060208284031215613bdd57600080fd5b6000613beb84828501613982565b91505092915050565b600060208284031215613c0657600080fd5b6000613c1484828501613997565b91505092915050565b600060208284031215613c2f57600080fd5b6000613c3d848285016139c1565b91505092915050565b600060208284031215613c5857600080fd5b6000613c66848285016139d6565b91505092915050565b600080600060408486031215613c8457600080fd5b6000613c92868287016139c1565b935050602084013567ffffffffffffffff811115613caf57600080fd5b613cbb8682870161389a565b92509250509250925092565b600080600060608486031215613cdc57600080fd5b6000613cea868287016139c1565b9350506020613cfb8682870161396d565b9250506040613d0c868287016139c1565b9150509250925092565b60008060408385031215613d2957600080fd5b6000613d37858286016139c1565b9250506020613d48858286016139c1565b9150509250929050565b60008060008060608587031215613d6857600080fd5b6000613d76878288016139c1565b9450506020613d87878288016139eb565b935050604085013567ffffffffffffffff811115613da457600080fd5b613db087828801613826565b925092505092959194509250565b600060208284031215613dd057600080fd5b6000613dde848285016139eb565b91505092915050565b6000613df38383614529565b60208301905092915050565b6000613e0b8383614547565b60208301905092915050565b6000613e23838361458b565b60208301905092915050565b613e3881614fdb565b82525050565b6000613e4a8385614d83565b9350613e5582614ce3565b8060005b85811015613e8e57613e6b8284614dd8565b613e758882613de7565b9750613e8083614d3e565b925050600181019050613e59565b5085925050509392505050565b6000613ea682614d1d565b613eb08185614d72565b9350613ebb83614ced565b8060005b83811015613eec578151613ed38882613de7565b9750613ede83614d4b565b925050600181019050613ebf565b5085935050505092915050565b6000613f0482614d1d565b613f0e8185614d83565b9350613f1983614ced565b8060005b83811015613f4a578151613f318882613de7565b9750613f3c83614d4b565b925050600181019050613f1d565b5085935050505092915050565b6000613f6282614d28565b613f6c8185614d94565b9350613f7783614cfd565b8060005b83811015613fa8578151613f8f8882613dff565b9750613f9a83614d58565b925050600181019050613f7b565b5085935050505092915050565b6000613fc082614d33565b613fca8185614da5565b9350613fd583614d0d565b8060005b83811015614006578151613fed8882613e17565b9750613ff883614d65565b925050600181019050613fd9565b5085935050505092915050565b600061401e82614d33565b6140288185614db6565b935061403383614d0d565b8060005b8381101561406457815161404b8882613e17565b975061405683614d65565b925050600181019050614037565b5085935050505092915050565b61407a81614ff9565b82525050565b6140898161505b565b82525050565b6140988161506d565b82525050565b60006140ab601a83614dc7565b91506140b682615213565b602082019050919050565b60006140ce601583614dc7565b91506140d98261523c565b602082019050919050565b60006140f1601983614dc7565b91506140fc82615265565b602082019050919050565b6000614114601483614dc7565b915061411f8261528e565b602082019050919050565b6000614137601483614dc7565b9150614142826152b7565b602082019050919050565b600061415a602683614dc7565b9150614165826152e0565b604082019050919050565b600061417d601283614dc7565b91506141888261532f565b602082019050919050565b60006141a0601683614dc7565b91506141ab82615358565b602082019050919050565b60006141c3601883614dc7565b91506141ce82615381565b602082019050919050565b60006141e6601a83614dc7565b91506141f1826153aa565b602082019050919050565b6000614209601b83614dc7565b9150614214826153d3565b602082019050919050565b600061422c602083614dc7565b9150614237826153fc565b602082019050919050565b600061424f601983614dc7565b915061425a82615425565b602082019050919050565b6000614272601583614dc7565b915061427d8261544e565b602082019050919050565b6000614295601583614dc7565b91506142a082615477565b602082019050919050565b60006142b8601a83614dc7565b91506142c3826154a0565b602082019050919050565b60006142db601883614dc7565b91506142e6826154c9565b602082019050919050565b60006142fe602e83614dc7565b9150614309826154f2565b604082019050919050565b6000614321601683614dc7565b915061432c82615541565b602082019050919050565b6000614344601d83614dc7565b915061434f8261556a565b602082019050919050565b6000614367602183614dc7565b915061437282615593565b604082019050919050565b600061438a602083614dc7565b9150614395826155e2565b602082019050919050565b60006143ad601483614dc7565b91506143b88261560b565b602082019050919050565b60006143d0602983614dc7565b91506143db82615634565b604082019050919050565b60006143f3601d83614dc7565b91506143fe82615683565b602082019050919050565b6000614416601e83614dc7565b9150614421826156ac565b602082019050919050565b6000614439601e83614dc7565b9150614444826156d5565b602082019050919050565b600061445c601e83614dc7565b9150614467826156fe565b602082019050919050565b60006101008301600083015161448b6000860182614547565b50602083015161449e6020860182614080565b5060408301516144b16040860182614547565b5060608301516144c46060860182614547565b5060808301516144d76080860182614547565b5060a08301516144ea60a0860182614547565b5060c083015184820360c08601526145028282613fb5565b91505060e083015184820360e086015261451c8282613e9b565b9150508091505092915050565b61453281615016565b82525050565b61454181615016565b82525050565b61455081615044565b82525050565b61455f81615044565b82525050565b61457661457182615044565b61510b565b82525050565b6145858161507f565b82525050565b6145948161504e565b82525050565b6145a38161504e565b82525050565b60006145b58285614565565b6020820191506145c58284614565565b6020820191508190509392505050565b60006020820190506145ea6000830184613e2f565b92915050565b60006060820190506146056000830186613e2f565b6146126020830185613e2f565b61461f6040830184614556565b949350505050565b600060408201905061463c6000830185613e2f565b6146496020830184614538565b9392505050565b60006040820190506146656000830185613e2f565b6146726020830184614556565b9392505050565b600060a08201905061468e6000830189613e2f565b61469b6020830188614556565b6146a8604083018761459a565b81810360608301526146bb818587613e3e565b90506146ca608083018461459a565b979650505050505050565b60006040820190506146ea6000830185613e2f565b6146f7602083018461459a565b9392505050565b600060208201905081810360008301526147188184613ef9565b905092915050565b6000602082019050614735600083018461408f565b92915050565b600060208201905081810360008301526147548161409e565b9050919050565b60006020820190508181036000830152614774816140c1565b9050919050565b60006020820190508181036000830152614794816140e4565b9050919050565b600060208201905081810360008301526147b481614107565b9050919050565b600060208201905081810360008301526147d48161412a565b9050919050565b600060208201905081810360008301526147f48161414d565b9050919050565b6000602082019050818103600083015261481481614170565b9050919050565b6000602082019050818103600083015261483481614193565b9050919050565b60006020820190508181036000830152614854816141b6565b9050919050565b60006020820190508181036000830152614874816141d9565b9050919050565b60006020820190508181036000830152614894816141fc565b9050919050565b600060208201905081810360008301526148b48161421f565b9050919050565b600060208201905081810360008301526148d481614242565b9050919050565b600060208201905081810360008301526148f481614265565b9050919050565b6000602082019050818103600083015261491481614288565b9050919050565b60006020820190508181036000830152614934816142ab565b9050919050565b60006020820190508181036000830152614954816142ce565b9050919050565b60006020820190508181036000830152614974816142f1565b9050919050565b6000602082019050818103600083015261499481614314565b9050919050565b600060208201905081810360008301526149b481614337565b9050919050565b600060208201905081810360008301526149d48161435a565b9050919050565b600060208201905081810360008301526149f48161437d565b9050919050565b60006020820190508181036000830152614a14816143a0565b9050919050565b60006020820190508181036000830152614a34816143c3565b9050919050565b60006020820190508181036000830152614a54816143e6565b9050919050565b60006020820190508181036000830152614a7481614409565b9050919050565b60006020820190508181036000830152614a948161442c565b9050919050565b60006020820190508181036000830152614ab48161444f565b9050919050565b60006020820190508181036000830152614ad58184614472565b905092915050565b6000602082019050614af26000830184614538565b92915050565b6000602082019050614b0d6000830184614556565b92915050565b6000604082019050614b286000830185614556565b614b356020830184614071565b9392505050565b6000604082019050614b516000830185614556565b614b5e6020830184614556565b9392505050565b600060a082019050614b7a6000830188614556565b614b876020830187614556565b614b946040830186614556565b614ba16060830185614556565b8181036080830152614bb38184614013565b90509695505050505050565b6000604082019050614bd46000830185614556565b614be1602083018461457c565b9392505050565b600060a082019050614bfd6000830189614556565b614c0a602083018861459a565b8181036040830152614c1c8187613f57565b90508181036060830152614c31818587613e3e565b9050614c406080830184614556565b979650505050505050565b6000602082019050614c60600083018461459a565b92915050565b6000614c70614c81565b9050614c7c8282615091565b919050565b6000604051905090565b600067ffffffffffffffff821115614ca657614ca56151d3565b5b602082029050602081019050919050565b600067ffffffffffffffff821115614cd257614cd16151d3565b5b602082029050602081019050919050565b6000819050919050565b6000819050602082019050919050565b6000819050602082019050919050565b6000819050602082019050919050565b600081519050919050565b600081519050919050565b600081519050919050565b6000602082019050919050565b6000602082019050919050565b6000602082019050919050565b6000602082019050919050565b600082825260208201905092915050565b600082825260208201905092915050565b600082825260208201905092915050565b600082825260208201905092915050565b600082825260208201905092915050565b600082825260208201905092915050565b6000614de76020840184613997565b905092915050565b6000614dfa82615044565b9150614e0583615044565b9250827fffffffffffffffffffffffffffffffffffffffffffffffffffffffffffffffff03821115614e3a57614e39615146565b5b828201905092915050565b6000614e508261504e565b9150614e5b8361504e565b92508260ff03821115614e7157614e70615146565b5b828201905092915050565b6000614e8782615044565b9150614e9283615044565b925082614ea257614ea1615175565b5b828204905092915050565b6000614eb88261504e565b9150614ec38361504e565b925082614ed357614ed2615175565b5b828204905092915050565b6000614ee982615044565b9150614ef483615044565b9250817fffffffffffffffffffffffffffffffffffffffffffffffffffffffffffffffff0483118215151615614f2d57614f2c615146565b5b828202905092915050565b6000614f438261504e565b9150614f4e8361504e565b92508160ff0483118215151615614f6857614f67615146565b5b828202905092915050565b6000614f7e82615044565b9150614f8983615044565b925082821015614f9c57614f9b615146565b5b828203905092915050565b6000614fb28261504e565b9150614fbd8361504e565b925082821015614fd057614fcf615146565b5b828203905092915050565b6000614fe682615024565b9050919050565b60008115159050919050565b6000819050919050565b600081905061501182615727565b919050565b600061ffff82169050919050565b600073ffffffffffffffffffffffffffffffffffffffff82169050919050565b6000819050919050565b600060ff82169050919050565b600061506682615003565b9050919050565b600061507882615044565b9050919050565b600061508a8261504e565b9050919050565b61509a82615202565b810181811067ffffffffffffffff821117156150b9576150b86151d3565b5b80604052505050565b60006150cd82615044565b91507fffffffffffffffffffffffffffffffffffffffffffffffffffffffffffffffff821415615100576150ff615146565b5b600182019050919050565b6000819050919050565b600061512082615044565b915061512b83615044565b92508261513b5761513a615175565b5b828206905092915050565b7f4e487b7100000000000000000000000000000000000000000000000000000000600052601160045260246000fd5b7f4e487b7100000000000000000000000000000000000000000000000000000000600052601260045260246000fd5b7f4e487b7100000000000000000000000000000000000000000000000000000000600052602160045260246000fd5b7f4e487b7100000000000000000000000000000000000000000000000000000000600052604160045260246000fd5b6000601f19601f8301169050919050565b7f70726f787920636f6e7472616374206e6f7420616c6c6f776564000000000000600082015250565b7f4f6e6c792072616e646f6d2067656e657261746f720000000000000000000000600082015250565b7f5072697a65206f7220636f73742063616e6e6f74206265203000000000000000600082015250565b7f496e76616c696420646973747269627574696f6e000000000000000000000000600082015250565b7f4261746368206d696e7420746f6f206c61726765000000000000000000000000600082015250565b7f4f776e61626c653a206e6577206f776e657220697320746865207a65726f206160008201527f6464726573730000000000000000000000000000000000000000000000000000602082015250565b7f44726177206e756d626572732066697273740000000000000000000000000000600082015250565b7f576169742074696c6c20656e6420746f20636c61696d00000000000000000000600082015250565b7f4c6f74746572792073697a652063616e6e6f7420626520300000000000000000600082015250565b7f4e756d6265727320666f72207469636b657420696e76616c6964000000000000600082015250565b7f496e76616c69642074696d6520666f72206d696e743a73746172740000000000600082015250565b7f4c6f747465727920537461746520696e636f727265637420666f722064726177600082015250565b7f496e76616c69642074696d6520666f72206d696e743a656e6400000000000000600082015250565b7f426174636820636c61696d20746f6f206c617267650000000000000000000000600082015250565b7f4d61782072616e67652063616e6e6f7420626520300000000000000000000000600082015250565b7f43616e6e6f742073657420746f2063757272656e742073697a65000000000000600082015250565b7f4f6e6c7920746865206f776e65722063616e20636c61696d0000000000000000600082015250565b7f496e697469616c697a61626c653a20636f6e747261637420697320616c72656160008201527f647920696e697469616c697a6564000000000000000000000000000000000000602082015250565b7f496e76616c69642063686f73656e206e756d6265727300000000000000000000600082015250565b7f436f6e7472616374732063616e6e6f7420626520302061646472657373000000600082015250565b7f536166654d6174683a206d756c7469706c69636174696f6e206f766572666c6f60008201527f7700000000000000000000000000000000000000000000000000000000000000602082015250565b7f4f776e61626c653a2063616c6c6572206973206e6f7420746865206f776e6572600082015250565b7f636f6e7472616374206e6f7420616c6c6f776564000000000000000000000000600082015250565b7f43616e6e6f74207365742077696e6e696e67206e756d6265727320647572696e60008201527f67206c6f74746572790000000000000000000000000000000000000000000000602082015250565b7f4c6f7474657279206e6f7420696e20737461746520666f72206d696e74000000600082015250565b7f54696d657374616d707320666f72206c6f747465727920696e76616c69640000600082015250565b7f57696e6e696e67204e756d62657273206e6f742063686f73656e207965740000600082015250565b7f5072697a6520646973747269627574696f6e206973206e6f7420313030250000600082015250565b60048110615738576157376151a4565b5b50565b61574481614fdb565b811461574f57600080fd5b50565b61575b81614fed565b811461576657600080fd5b50565b61577281614ff9565b811461577d57600080fd5b50565b61578981615016565b811461579457600080fd5b50565b6157a081615044565b81146157ab57600080fd5b50565b6157b78161504e565b81146157c257600080fd5b5056fea26469706673582212208c56fe3e76aadd24de45f4ae6278af6a07538f186d3ff8591dea9ff03bd03dfc64736f6c63430008040033",
  "linkReferences": {},
  "deployedLinkReferences": {}
}